:04000000FEEFFFF020
:10200000003259004456003258006043005A4D00D7
:102010001C4F00B64C00245900DA5900D65900C6AE
:1020200056008259008A59001659007A5900DC5826
:10203000006A5100105000CC580054656D706572F4
:102040006174757261203D20256620B043200A002E
:10205000494E46004E414E00696E66006E616E004C
:102060006C660000000E0001806F000E7F6F5BC089
:1020700091F05CC092F05DC093F05EC094F094BFAC
:1020800046EF10F044EF10F05CEF10F0000E806FA0
:10209000010E7F6F91C001F092C002F093C003F077
:1020A00094C004F077EC2AF001C091F002C092F0E5
:1020B00003C093F004C094F0000E0001986F000E6E
:1020C000976F0AC183F00BC184F07F518011D8A4AF
:1020D0006CEF10F06EEF10F075EF10F0FDA573EFE0
:1020E00010F075EF10F08FEF10F07F518011D8A431
:1020F0007CEF10F07EEF10F084EF10F0000E666FB2
:102100002B0E656F88EF10F0000E666F2D0E656F59
:1021100065C00CF1974B982B8307D8A0840791C01A
:1021200001F092C002F093C003F094C004F048ECB8
:1021300023F001040210D8A4A0EF10F0A2EF10F0D9
:10214000F9EF10F0BF0E0001606FFF0E616F5F507E
:10215000626F636B605162276151632363510AE1CF
:102160001A0E625DD8A0B7EF10F0BAEF10F0010EB2
:10217000BBEF10F0000E676F686B67516811D8B441
:10218000C4EF10F0C6EF10F0D4EF10F00C0E97254E
:10219000016E010E9821026E500E036E200E046E29
:1021A000ECEC28F0E0EF10F00C0E9725016E010E1C
:1021B0009821026E580E036E200E046EECEC28F08F
:1021C0000001FD0E8327FF0E842359C013F05AC06F
:1021D00014F00C0E156E010E166E83C017F084C03D
:1021E00018F044EC24F013C059F014C05AF086EFF4
:1021F00016F091C001F092C002F093C003F094C0B9
:1022000004F048EC23F001500210D8A40AEF11F0BA
:102210000CEF11F063EF11F0BF0E0001606FFF0EC5
:10222000616F5F50626F636B60516227615163231E
:1022300063510AE11A0E625DD8A021EF11F024EF7C
:1022400011F0010E25EF11F0000E696F6A6B6951F4
:102250006A11D8B42EEF11F030EF11F03EEF11F00B
:102260000C0E9725016E010E9821026E540E036E1E
:10227000200E046EECEC28F04AEF11F00C0E9725BE
:10228000016E010E9821026E5C0E036E200E046E2C
:10229000ECEC28F00001FD0E8327FF0E842359C0CB
:1022A00013F05AC014F00C0E156E010E166E83C09A
:1022B00017F084C018F044EC24F013C059F014C097
:1022C0005AF086EF16F0000E0001996F000E9A6F1B
:1022D000800E9B6F3F0E9C6F000E966F000E956FE9
:1022E00091C001F092C002F093C003F094C004F0DA
:1022F000000E056E000E066E000E076E000E086ED4
:1023000061EC25F0D8B087EF11F089EF11F00CEFF8
:1023100012F0A8EF11F099C00FF09AC010F09BC016
:1023200011F09CC012F0000E136E000E146E200E01
:10233000156E410E166EE7EC18F00FC099F010C044
:102340009AF011C09BF012C09CF00001954B962BA7
:1023500091C028F092C029F093C02AF094C02BF0CD
:10236000000E136E000E146E200E156E410E166ECA
:1023700099C00FF09AC010F09BC011F09CC012F0F1
:10238000E7EC18F00FC02CF010C02DF011C02EF0AB
:1023900012C02FF0C6EC22F0D8B0D1EF11F0D3EF7D
:1023A00011F08BEF11F0F3EF11F099C028F09AC003
:1023B00029F09BC02AF09CC02BF0000E2C6E000E62
:1023C0002D6E200E2E6E410E2F6E32EC1DF028C0A9
:1023D00099F029C09AF02AC09BF02BC09CF0000114
:1023E0009507D8A0960791C028F092C029F093C015
:1023F0002AF094C02BF099C02CF09AC02DF09BC00D
:102400002EF09CC02FF0C6EC22F0D8A00AEF12F0FC
:102410000CEF12F0D5EF11F05FC007F0086A21EC65
:1024200029F007500001866F86C085F0670E861977
:10243000D8A41DEF12F01FEF12F045EF12F0FB5180
:10244000FC11D8A426EF12F028EF12F02CEF12F0B6
:10245000000EFC6F010EFB6FFCBF39EF12F0FC5158
:1024600006E1FB05D8B037EF12F039EF12F03FEF7D
:1024700012F0000E826F060E816F4EEF12F0FBC05D
:1024800081F0FCC082F04EEF12F0FCBF4AEF12F078
:102490004CEF12F039EF12F03FEF12F0670E861991
:1024A000D8A455EF12F057EF12F086EF12F096AF66
:1024B00065EF12F0FC0E955DFF0E9659D8A063EF04
:1024C00012F065EF12F084EF12F0FF0E606FFF0E56
:1024D000616F81C062F082C063F060516227615118
:1024E00063239551625D6351800A646F9651800A3F
:1024F0006459D8A07EEF12F080EF12F084EF12F052
:10250000660E856F86EF12F0650E856F81C077F0DD
:1025100082C078F0670E8619D8A491EF12F093EF7D
:1025200012F0A3EF12F0660E8519D8A49AEF12F0FC
:102530009CEF12F0A5EF12F096BFA3EF12F0A1EFFF
:1025400012F0A5EF12F0774B782B660E8519D8A400
:10255000ACEF12F0AEEF12F0CEEF12F096BFB5EF87
:1025600012F0B3EF12F0C1EF12F0000E996F000EEF
:102570009A6F800E9B6F3F0E9C6F000E966F000E41
:10258000956F670E8619D8B4C8EF12F0CAEF12F033
:10259000CEEF12F09551772796517823000E906F69
:1025A000000E8F6F91C087F092C088F093C089F0C1
:1025B00094C08AF099C079F09AC07AF09BC07BF001
:1025C0009CC07CF05FEF13F087C028F088C029F032
:1025D00089C02AF08AC02BF099C02CF09AC02DF047
:1025E0009BC02EF09CC02FF032EC1DF028C041F0B3
:1025F00029C042F02AC043F02BC044F0FFEC1EF08B
:1026000041C08BF042C08CF043C08DF044C08EF0CE
:102610008BC001F08CC002F08DC003F08EC004F0BE
:1026200043EC22F001C07DF002C07EF087C051F083
:1026300088C052F089C053F08AC054F099C013F09A
:102640009AC014F09BC015F09CC016F08BC00FF020
:102650008CC010F08DC011F08EC012F0E7EC18F0B5
:102660000FC055F010C056F011C057F012C058F00E
:10267000F9EC29F051C087F052C088F053C089F0BE
:1026800054C08AF099C028F09AC029F09BC02AF063
:102690009CC02BF0000E2C6E000E2D6E200E2E6EA8
:1026A000410E2F6E32EC1DF028C099F029C09AF02F
:1026B0002AC09BF02BC09CF000018F4B902B7751D0
:1026C0008F5D9051800A606F7851800A6059D8A060
:1026D0006CEF13F06EEF13F0E4EF12F099C00FF00F
:1026E0009AC010F09BC011F09CC012F0000E136E47
:1026F000000E146EA00E156E400E166EE7EC18F06C
:102700000FC08BF010C08CF011C08DF012C08EF095
:1027100087C028F088C029F089C02AF08AC02BF031
:102720008BC02CF08CC02DF08DC02EF08EC02FF001
:10273000C6EC22F0D8B09FEF13F0A1EF13F0ACEF8E
:1027400013F0000E00018B6F000E8C6F000E8D6F6A
:10275000000E8E6FD5EF13F087C001F088C002F035
:1027600089C003F08AC004F08BC005F08CC006F06D
:102770008DC007F08EC008F061EC25F0D8A0C3EF43
:1027800013F0C5EF13F0D5EF13F000017DB1CBEFDF
:1027900013F0CDEF13F0D5EF13F0000E8B6F000E9A
:1027A0008C6F000E8D6F000E8E6F91C041F092C045
:1027B00042F093C043F094C044F08BC045F08CC00D
:1027C00046F08DC047F08EC048F087EC16F041C04F
:1027D00087F042C088F043C089F044C08AF087C0C7
:1027E00028F088C029F089C02AF08AC02BF0000E9A
:1027F000136E000E146E200E156E410E166E79C00B
:102800000FF07AC010F07BC011F07CC012F0E7EC42
:1028100018F00FC02CF010C02DF011C02EF012C017
:102820002FF0C6EC22F0D8A018EF14F01AEF14F035
:1028300043EF14F00001954B962B79C00FF07AC04E
:1028400010F07BC011F07CC012F0000E136E000E71
:10285000146E200E156E410E166EE7EC18F00FC0C8
:1028600079F010C07AF011C07BF012C07CF0660ED7
:1028700000018519D8A43FEF14F041EF14F043EFA5
:1028800014F0774B782B79C099F07AC09AF07BC01E
:102890009BF07CC09CF0650E00018519D8B453EF05
:1028A00014F055EF14F05BEF14F095C075F096C07E
:1028B00076F05FEF14F0000E766F000E756F000E6D
:1028C000746F000E736F000E726F000E716F000E4A
:1028D000906F000E8F6F5AEF15F087C028F088C0F8
:1028E00029F089C02AF08AC02BF099C02CF09AC038
:1028F0002DF09BC02EF09CC02FF032EC1DF028C0B4
:1029000041F029C042F02AC043F02BC044F0FFEC54
:102910001EF041C08BF042C08CF043C08DF044C02B
:102920008EF08BC001F08CC002F08DC003F08EC021
:1029300004F043EC22F001C07DF002C07EF0000103
:10294000FDB9A5EF14F0A7EF14F0C4EF14F07D511A
:102950007E11D8A4AEEF14F0B0EF14F0C4EF14F071
:10296000670E8619D8A4B7EF14F0B9EF14F0C4EFCE
:1029700014F076BFC0EF14F0BEEF14F0C4EF14F003
:10298000714B722B0EEF15F073517411D8A4CBEF6D
:1029900014F0CDEF14F0F7EF14F076BFD4EF14F08D
:1029A000D2EF14F0F7EF14F00C0E9725D96E010E4C
:1029B0009821DA6E2E0EDF6E974B982B8307D8A0E6
:1029C0008407000E746F010E736FF7EF14F00C0E96
:1029D0009725D96E010E9821DA6E300EDF6E974B77
:1029E000982B8307D8A084077107D8A0720771516C
:1029F0007211D8A4FEEF14F000EF15F0E7EF14F019
:102A00000C0E9725D96E010E9821DA6E7D51300F8C
:102A1000DF6E974B982B8307D8A0840787C051F0AF
:102A200088C052F089C053F08AC054F099C013F0A6
:102A30009AC014F09BC015F09CC016F08BC00FF02C
:102A40008CC010F08DC011F08EC012F0E7EC18F0C1
:102A50000FC055F010C056F011C057F012C058F01A
:102A6000F9EC29F051C087F052C088F053C089F0CA
:102A700054C08AF099C028F09AC029F09BC02AF06F
:102A80009CC02BF0000E2C6E000E2D6E200E2E6EB4
:102A9000410E2F6E32EC1DF028C099F029C09AF03B
:102AA0002AC09BF02BC09CF000017507D8A07607C8
:102AB0008F4B902B77518F5D9051800A606F7851CA
:102AC000800A6059D8B067EF15F069EF15F077EF1D
:102AD00015F098BF75EF15F0985109E14B0E975D11
:102AE000D8A075EF15F077EF15F06DEF14F0735176
:102AF0007411D8A47EEF15F080EF15F091EF15F06A
:102B0000FDA985EF15F087EF15F091EF15F00C0E8C
:102B10009725D96E010E9821DA6E2E0EDF6E974B37
:102B2000982B0C0E9725D96E010E9821DA6E000EA7
:102B3000DF6E650E8519D8A4A0EF15F0A2EF15F091
:102B400074EF16F0000E906F4F0E8F6F0C0E8F25E6
:102B5000D96E010E9021DA6E000EDF6E000E806FCE
:102B6000000E7F6F96BFB9EF15F0B7EF15F0C1EF0C
:102B700015F0000E806F010E7F6F956D961FD8B017
:102B8000962B000E826F020E816FF2EF15F08F0709
:102B9000D8A090070C0E8F25D96E010E9021DA6E09
:102BA00095C001F096C002F0000E046E0A0E036E8E
:102BB00009EC25F00150300FDF6E95C001F096C092
:102BC00002F0000E046E0A0E036EA7EC24F001C0A2
:102BD00095F002C096F000018107D8A08207830714
:102BE000D8A0840795519611D8A4F9EF15F0FBEF02
:102BF00015F0C7EF15F082BF08EF16F0825106E11D
:102C00008105D8B006EF16F008EF16F0C7EF15F003
:102C10008F07D8A090077F518011D8A412EF16F02B
:102C200014EF16F01AEF16F0000E6C6F2B0E6B6F90
:102C30001EEF16F0000E6C6F2D0E6B6F0C0E8F25B5
:102C4000D96E010E9021DA6E6000AFF1DFFF8307CD
:102C5000D8A084078F07D8A09007BF0E606FFF0E23
:102C6000616F5F50626F636B6051622761516323D4
:102C700063510AE11A0E625DD8A041EF16F044EFED
:102C800016F0010E45EF16F0000E6F6F706B6F516E
:102C90007011D8A44EEF16F050EF16F056EF16F064
:102CA000000E6E6F650E6D6F5AEF16F0000E6E6FB0
:102CB000450E6D6F0C0E8F25D96E010E9021DA6EC8
:102CC0006000B7F1DFFF8307D8A084070C0E9725BB
:102CD000016E010E9821026E0C0E8F25036E010EFF
:102CE0009021046EECEC28F059C013F05AC014F097
:102CF0000C0E156E010E166E83C017F084C018F00E
:102D000044EC24F013C059F014C05AF0120044509F
:102D1000800B4D6E445044244F6E43AE92EF16F03C
:102D200094EF16F095EF16F04F804F50D8B49BEF0C
:102D300016F09DEF16F0B2EF16F04F28D8A4A3EFCF
:102D400016F0A5EF16F0ADEF16F0000E416E000E76
:102D5000426E000E436E000E446E438E000E446EB3
:102D6000BAEF16F0000E416E000E426E000E436E7A
:102D7000000E446E4850800B4E6E4D504E18D8B425
:102D8000C4EF16F0C6EF16F0C7EF16F04D8C4850A2
:102D900048244E6E47AECFEF16F0D1EF16F0D2EFCB
:102DA00016F04E804E50D8B4D8EF16F0DAEF16F089
:102DB000EFEF16F04E28D8A4E0EF16F0E2EF16F091
:102DC000EAEF16F0000E456E000E466E000E476EDE
:102DD000000E486E478E000E486EF7EF16F0000E9C
:102DE000456E000E466E000E476E000E486E4F5048
:102DF0004E5CD8B0FEEF16F000EF17F027EF17F09B
:102E00004DAC05EF17F007EF17F009EF17F0800E44
:102E10004D1A4FC050F04EC04FF050C04EF041C060
:102E200050F045C041F050C045F042C050F046C09F
:102E300042F050C046F043C050F047C043F050C08D
:102E400047F044C050F048C044F050C048F0000E75
:102E5000506E4F504EC049F04A6A495E000E4A5AC1
:102E60004ABE3CEF17F04A5009E11A0E495CD8A05F
:102E70003CEF17F03EEF17F075EF17F0415042109E
:102E800043104410D8A447EF17F04AEF17F0010E93
:102E90004BEF17F0000E506E000E416E000E426EAA
:102EA000000E436E000E446E4EC04FF07EEF17F0E2
:102EB00050A05DEF17F05FEF17F065EF17F0D890B7
:102EC00050300109506E67EF17F0D890503241A092
:102ED0006CEF17F06EEF17F06FEF17F0508E443471
:102EE00044324332423241324F2A4E504F5CD8A0D6
:102EF0007CEF17F07EEF17F058EF17F04DBC83EF23
:102F000017F085EF17F0C5EF17F04F50D8A48BEFEF
:102F100017F08DEF17F097EF17F0000E416E000ECF
:102F2000426E000E436E000E446EE6EF18F0455000
:102F3000412646504222475043224850442244A052
:102F4000A4EF17F0A6EF17F052EF18F050A0ABEF78
:102F500017F0ADEF17F0B3EF17F0D890503001092C
:102F6000506EB5EF17F0D890503241A0BAEF17F07D
:102F7000BCEF17F0BDEF17F0508E443444324332AB
:102F8000423241324F2A52EF18F04550415C4650D0
:102F90004258475043584450800A496E4850800A6E
:102FA0004958D8B0D6EF17F0D8EF17F003EF18F064
:102FB0004150455C496E425046584A6E435047580E
:102FC0004B6E445048584C6EFF0E4924416EFF0E24
:102FD0004A20426EFF0E4B20436EFF0E4C20446E83
:102FE000800E4D1A506C5050D8A4F9EF17F0FBEF3B
:102FF00017F00BEF18F0010E4126000E422243227B
:1030000044220BEF18F04550415E4650425A47505B
:10301000435A4850445A4150421043104410D8A4D7
:1030200014EF18F016EF18F04BEF18F05050D8A42A
:103030001CEF18F01EEF18F04BEF18F0000E416E69
:10304000000E426E000E436E000E446EE6EF18F066
:10305000D890413642364336443650AE32EF18F0FF
:1030600034EF18F035EF18F0418050A03AEF18F027
:103070003CEF18F040EF18F0D880503642EF18F0CF
:10308000D89050364F50D8B448EF18F04AEF18F0A7
:103090004BEF18F04F0643AE50EF18F052EF18F018
:1030A00028EF18F0000E4E6E50AE59EF18F05BEF9F
:1030B00018F073EF18F050C049F07F0E4916D8B4DD
:1030C00064EF18F066EF18F06AEF18F0010E4E6E1C
:1030D00073EF18F041A06FEF18F071EF18F073EF75
:1030E00018F066EF18F04E50D8B479EF18F07BEF77
:1030F00018F0A6EF18F0010E4126000E42224322DE
:10310000442244A086EF18F088EF18F0A6EF18F0DC
:1031100041C049F042C04AF043C04BF044C04CF0BB
:103120004C344C324B324A32493249C041F04AC0E9
:1031300042F04BC043F04CC044F04F28D8B4A3EF4A
:1031400018F0A5EF18F0A6EF18F04F2A4F28D8B4C2
:10315000ACEF18F0AEEF18F0B6EF18F04F50D8A45F
:10316000B4EF18F0B6EF18F0C8EF18F0000E416E8B
:10317000000E426E000E436E000E446E4F50D8A4F7
:10318000C4EF18F0C6EF18F0C8EF18F0000E4D6E3F
:103190004FA0CDEF18F0CFEF18F0D2EF18F0438E1C
:1031A000D3EF18F0439ED8904F30446E4DAEDBEF16
:1031B00018F0DDEF18F0DEEF18F0448E41C041F05A
:1031C00042C042F043C043F044C044F012001250E9
:1031D000800B1B6E12501224216E11AEF2EF18F00C
:1031E000F4EF18F0F5EF18F021802150D8B4FBEF80
:1031F00018F0FDEF18F010EF19F02128D8A403EF14
:1032000019F005EF19F00DEF19F0000E0F6E000E1A
:10321000106E000E116E000E126E118E18EF19F066
:10322000000E0F6E000E106E000E116E000E126E6C
:103230001650800B1B1A16501624206E15AE23EF65
:1032400019F025EF19F026EF19F020802050D8B49E
:103250002CEF19F02EEF19F041EF19F02028D8A427
:1032600034EF19F036EF19F03EEF19F0000E136E3F
:10327000000E146E000E156E000E166E158E49EFC0
:1032800019F0000E136E000E146E000E156E000E77
:10329000166E2050D8B44FEF19F051EF19F059EFD6
:1032A00019F02150D8A457EF19F059EF19F063EF36
:1032B00019F0000E0F6E000E106E000E116E000E53
:1032C000126E0DEF1BF015500F026F00CCFF26F0B1
:1032D0006F00D0FF27F026501C6E1D6A1E6A1F6A01
:1032E0002750226E236A246A256A145010026F0048
:1032F000CCFF26F06F00D0FF27F026501C26000ED2
:103300001D221E221F2227502226000E23222422A5
:103310002522135011026F00CCFF26F06F00D0FF62
:1033200027F026501C26000E1D221E221F22275089
:103330002226000E2322242225221EC01FF01DC09B
:103340001EF01CC01DF01C6A135010026F00CCFF51
:1033500026F06F00D0FF27F026501C2627501D2294
:10336000000E1E22000E1F2214500F026F00CCFF11
:1033700026F06F00D0FF27F026501C2627501D2274
:10338000000E1E22000E1F221EC01FF01DC01EF0C8
:103390001CC01DF01C6A13500F026F00CCFF26F0FA
:1033A0006F00D0FF27F026501C2627501D22000E4C
:1033B0001E22000E1F22155010026F00CCFF26F0B7
:1033C0006F00D0FF27F02650222627502322000E20
:1033D0002422000E2522145011026F00CCFF26F08B
:1033E0006F00D0FF27F02650222627502322000E00
:1033F0002422000E2522155011026F00CCFF26F06A
:103400006F00D0FF27F02650176E2750186E196AEC
:103410001A6A19C01AF018C019F017C018F0176A04
:103420001750222618502322195024221A502522E0
:103430001CC017F01DC018F01EC019F01FC01AF0F4
:10344000190E28EF1AF0D8901A32193218321732A2
:10345000E82E23EF1AF01750222618502322195075
:1034600024221A5025221EC01FF01DC01EF01CC0B1
:103470001DF01C6A205021C017F0186A1726000E94
:103480001822820E1724266EFF0E1820276E5EEF7C
:103490001AF0D89022362336243625361FAE53EF45
:1034A0001AF055EF1AF056EF1AF02280D8901C3619
:1034B0001D361E361F362606D8A0270624AE63EF1B
:1034C0001AF065EF1AF049EF1AF0000E206E1FAEE9
:1034D0006CEF1AF06EEF1AF092EF1AF0FF0E1C1458
:1034E000176EFF0E1D14186EFF0E1E14196E7F0E40
:1034F0001F141A6E1750181019101A10D8B483EF31
:103500001AF085EF1AF089EF1AF0010E206E92EF93
:103510001AF022A08EEF1AF090EF1AF092EF1AF044
:1035200085EF1AF02050D8B498EF1AF09AEF1AF0FD
:10353000BEEF1AF0010E2226000E2322242225229D
:1035400025A0A5EF1AF0A7EF1AF0BEEF1AF022C0DF
:1035500017F023C018F024C019F025C01AF01A344F
:103560001A3219321832173217C022F018C023F05D
:1035700019C024F01AC025F0264A272A27BEC9EF11
:103580001AF0275008E12628D8A0C9EF1AF0CBEF8F
:103590001AF0D5EF1AF0000E226E000E236E800E88
:1035A000246E7F0E256E03EF1BF027BEE2EF1AF0AC
:1035B000275006E12604D8B0E0EF1AF0E2EF1AF047
:1035C000EEEF1AF0000E226E000E236E000E246E37
:1035D000000E256E000E1B6E03EF1BF026C021F0BF
:1035E000FF0E2216FF0E23167F0E2416000E251640
:1035F00021A0FDEF1AF0FFEF1AF000EF1BF0248E70
:10360000D8902130256E1B50251222C00FF023C008
:1036100010F024C011F025C012F0120060007FF2FB
:10362000D9FF600083F2DAFF6F007BFFF6FF6F00C7
:1036300077FFF7FF000EF86E0800F550250AD8A4B2
:1036400024EF1BF026EF1BF00EEF1DF060007FF261
:10365000D9FF600083F2DAFFDE2A000EDD22000EC1
:1036600001010B6F000E0A6F0AC1FDF00BC1FEF0E5
:103670000001FB69FC6960007FF2D9FF600083F202
:10368000DAFF6F007BFFF6FF6F0077FFF7FF000E9A
:10369000F86E0800F550076E086A21EC29F0075013
:1036A0000001AD6FAD51D8B458EF1BF05AEF1BF0CD
:1036B000A4EF1BF060007FF2D9FF600083F2DAFF15
:1036C0006F0078FFA3F06F0074FFA4F0010EA32732
:1036D000000EA42360008FF2F6FF600093F2F7FF64
:1036E000000EF86E0800F550076E086A21EC29F00C
:1036F00007500001AE6FAE51D8B481EF1BF083EFDD
:103700001BF0A4EF1BF060007FF2D9FF600083F292
:10371000DAFF6F0078FFA3F06F0074FFA4F0020ED1
:10372000A327000EA42360008FF2F6FF600093F23F
:10373000F7FF000EF86E0800F550076E086A21ECDE
:1037400029F007500001AF6F660EAD19D8A4ABEF9A
:103750001BF0ADEF1BF000EF1CF060007FF2D9FF13
:10376000600083F2DAFF6F007BFFF6FF6F0077FFE8
:10377000F7FF000EF86E08006F00D4FFB0F0600095
:103780007FF2D9FF600083F2DAFFDE2A000EDD222D
:10379000600087F2D9FF60008BF2DAFF6F007CFFD8
:1037A000A3F0040EDE266F007CFFA4F0000EDD22E5
:1037B00060008FF2D9FF600093F2DAFF6F0078FFAC
:1037C000A9F06F0078FFAAF06F0078FFABF06F00F0
:1037D00078FFACF09DC059F09EC05AF0A9C05BF0D4
:1037E000AAC05CF0ABC05DF0ACC05EF0B0C05FF0F2
:1037F00032EC10F059C09DF05AC09EF031EF1DF030
:10380000AD0E016E000E026E600E036E200E046E91
:10381000000E066E020E056EC7EC23F0015002107A
:10382000D8A415EF1CF017EF1CF0CCEF1CF06000D3
:103830007FF2D9FF600083F2DAFF6F0078FFA3F018
:103840006F0074FFA4F0010E0001A327000EA42353
:1038500060008FF2F6FF600093F2F7FF000EF86E43
:1038600008006F00D4FFB0F0BF0EA36FFF0EA46F6F
:1038700060007FF2D9FF600083F2DAFF6F007BFF08
:10388000F6FF6F0077FFF7FF000EF86E0800F550A7
:10389000A56FA66BA351A527A451A623A6510AE1A3
:1038A0001A0EA55DD8A057EF1CF05AEF1CF0010EC0
:1038B0005BEF1CF0000EA76FA86BA751A811D8B43E
:1038C00064EF1CF066EF1CF08AEF1CF0600087F2DA
:1038D000D9FF60008BF2DAFF6F007CFFA3F0040ECB
:1038E000DE266F007CFFA4F0000EDD2260008FF268
:1038F000D9FF600093F2DAFF6F0078FFA9F06F0044
:1039000078FFAAF06F0078FFABF06F0078FFACF0A3
:10391000ACEF1CF0600087F2D9FF60008BF2DAFF99
:103920006F007CFFA3F0040EDE266F007CFFA4F086
:10393000000EDD2260008FF2D9FF600093F2DAFF03
:103940006F0078FFA9F06F0078FFAAF06F0078FF92
:10395000ABF06F0078FFACF0020E60007FF2D9FF91
:10396000600083F2DAFFDE26000EDD229DC059F0F2
:103970009EC05AF0A9C05BF0AAC05CF0ABC05DF07D
:10398000ACC05EF0B0C05FF032EC10F059C09DF0FA
:103990005AC09EF031EF1DF060007FF2D9FF600049
:1039A00083F2DAFF6F007BFFF6FF6F0077FFF7FF10
:1039B000000EF86E0800F550250AD8A4E2EF1CF0BE
:1039C000E4EF1CF0FEEF1CF060007FF2D9FF600016
:1039D00083F2DAFFDE2A000EDD22000E046E250ED1
:1039E000036E9DC005F09EC006F0FCEC26F0000EB4
:1039F00000019E6F010E9D6F31EF1DF060007FF2A0
:103A0000D9FF600083F2DAFFDE2A000EDD22000E0D
:103A100000019E6F000E9D6F31EF1DF060007FF280
:103A2000D9FF600083F2DAFF6F007BFFF6FF6F00C3
:103A300077FFF7FF000EF86E0800F550036E046A7A
:103A40009DC005F09EC006F0FCEC26F060007FF201
:103A5000D9FF600083F2DAFFDE2A000EDD22F7EFE5
:103A60001CF012002B50800B386E2B502B243F6E15
:103A70002AAE3DEF1DF03FEF1DF040EF1DF03F80FF
:103A80003F50D8B446EF1DF048EF1DF05DEF1DF03C
:103A90003F28D8A44EEF1DF050EF1DF058EF1DF059
:103AA000000E286E000E296E000E2A6E000E2B6E80
:103AB0002A8E000E2B6E65EF1DF0000E286E000E94
:103AC000296E000E2A6E000E2B6E2F50800B381AB6
:103AD0002F502F24406E2EAE70EF1DF072EF1DF0B0
:103AE00073EF1DF040804050D8B479EF1DF07BEFAC
:103AF0001DF090EF1DF04028D8A481EF1DF083EF5A
:103B00001DF08BEF1DF0000E2C6E000E2D6E000EC2
:103B10002E6E000E2F6E2E8E000E2F6E98EF1DF063
:103B2000000E2C6E000E2D6E000E2E6E000E2F6EEF
:103B30002C502D102E102F10D8A4A1EF1DF0A3EFA4
:103B40001DF0BBEF1DF0000E286E000E296E000E5A
:103B50002A6E000E2B6E800E2A127F0E2B1238500A
:103B60002B1228C028F029C029F02AC02AF02BC027
:103B70002BF0FEEF1EF03F50D8A4C1EF1DF0C3EFB5
:103B80001DF0CDEF1DF0000E286E000E296E000E08
:103B90002A6E000E2B6EFEEF1EF040503FC030F03C
:103BA000316A305E000E315A7F0E3024396E000EBD
:103BB00031203A6E28C034F029C035F02AC036F0E2
:103BC0002BC037F0000E286E000E296E000E2A6EF4
:103BD000000E2B6E000E3B6E000E3C6E000E3D6E16
:103BE000000E3E6E000E406E2EEF1EF04050D8B418
:103BF000FCEF1DF0FEEF1DF015EF1EF0D8903436EF
:103C0000353636363736D890283629362A362B368A
:103C10003EAE0DEF1EF00FEF1EF010EF1EF02880ED
:103C2000D8903B363C363D363E362C50345C2D50D9
:103C300035582E5036582F503758D8A022EF1EF046
:103C400024EF1EF02DEF1EF03E8C2C50345E2D50D4
:103C5000355A2E50365A2F50375A402A190E406482
:103C600034EF1EF036EF1EF0F6EF1DF03450351035
:103C700036103710D8B43FEF1EF041EF1EF059EF69
:103C80001EF03B8059EF1EF0D890283629362A3690
:103C90002B363EAE4EEF1EF050EF1EF051EF1EF0F1
:103CA0002880D8903B363C363D363E363906D8A083
:103CB0003A062AAE5EEF1EF060EF1EF044EF1EF0F3
:103CC000000E406E3EAE67EF1EF069EF1EF08DEF06
:103CD0001EF0FF0E3B14306EFF0E3C14316EFF0ED3
:103CE0003D14326E7F0E3E14336E30503110321060
:103CF0003310D8B47EEF1EF080EF1EF084EF1EF07C
:103D0000010E406E8DEF1EF028A089EF1EF08BEFA4
:103D10001EF08DEF1EF080EF1EF04050D8B493EFF0
:103D20001EF095EF1EF0B9EF1EF0010E2826000ED2
:103D300029222A222B222BA0A0EF1EF0A2EF1EF098
:103D4000B9EF1EF028C030F029C031F02AC032F09F
:103D50002BC033F03334333232323132303230C070
:103D600028F031C029F032C02AF033C02BF0394A94
:103D70003A2A3ABEC4EF1EF03A5008E13928D8A0DA
:103D8000C4EF1EF0C6EF1EF0D1EF1EF0000E3A6E2B
:103D90003968000E286E000E296E000E2A6E000E85
:103DA0002B6E3ABEDEEF1EF03A5006E13904D8B071
:103DB000DCEF1EF0DEEF1EF0ECEF1EF0000E3A6EB0
:103DC000000E396E000E286E000E296E000E2A6E4F
:103DD000000E2B6E000E386E39C03FF03FA0F3EF9F
:103DE0001EF0F5EF1EF0F8EF1EF02A8EF9EF1EF030
:103DF0002A9ED8903F302B6EAFEF1DF0120000C10D
:103E000051F001C152F002C153F003C154F041C05E
:103E100051F042C052F043C053F044C054F0810E00
:103E2000456EFF0E466E51C047F052C048F053C079
:103E300049F054C04AF0180E23EF1FF0D8904A32D0
:103E4000493248324732E82E1EEF1FF047504524D2
:103E50004F6E000E4620506E50BE38EF1FF050508F
:103E600009E1170E4F5CD8A038EF1FF03AEF1FF0B2
:103E700044EF1FF041C041F042C042F043C043F064
:103E800044C044F007EF20F050BE49EF1FF04BEF65
:103E90001FF0BBEF1FF04FC045F0FF0E466EFF0E48
:103EA000476E7F0E486E000E496E45665AEF1FF052
:103EB00062EF1FF049344932483247324632452ECC
:103EC00055EF1FF046C04BF047C04CF048C04DF0D6
:103ED00049C04EF04B505114456E4C505214466E32
:103EE0004D505314476E4E505414486E4550461072
:103EF00047104810D8A47FEF1FF081EF1FF083EF29
:103F00001FF03AEF1FF051C045F052C046F053C0C9
:103F100047F054C048F0200E93EF1FF0D89048327D
:103F2000473246324532E82E8EEF1FF0455046109C
:103F300047104810D8B49FEF1FF0A1EF1FF0A9EF72
:103F40001FF04B5051264C5052224D5053224E5090
:103F500054224B1C456E4C1C466E4D1C476E4E1C2D
:103F6000486E455051164650521647505316485009
:103F70005416FFEF1FF051C045F052C046F053C039
:103F800047F054C048F0200ECBEF1FF0D8904832D5
:103F9000473246324532E82EC6EF1FF045504610F4
:103FA00047104810D8A4D7EF1FF0D9EF1FF0E3EF68
:103FB0001FF0000E516E000E526E000E536E000E7A
:103FC000546EFFEF1FF0D8905134456E5234466E58
:103FD0005334476E5434486E4550461047104810CD
:103FE000D8B4F5EF1FF0F7EF1FF0FFEF1FF0000E52
:103FF000516E000E526E800E536EBF0E546E51C045
:1040000041F052C042F053C043F054C044F012009B
:10401000096E0950D8B40FEF20F011EF20F033EF04
:1040200020F004BE18EF20F016EF20F033EF20F060
:1040300001C005F002C006F003C007F004C008F09C
:10404000051E061E071E081E052A000E0622072250
:10405000082205C00BF006C00CF007C00DF008C028
:104060000EF03BEF20F001C00BF002C00CF003C0DB
:104070000DF004C00EF00150021003100410D8A47B
:1040800044EF20F046EF20F050EF20F0000E016EDC
:10409000000E026E000E036E000E046EE1EF20F0C3
:1040A000960E0A6E5AEF20F00A2AD8900E320D3280
:1040B0000C320B32000E0B14056E000E0C14066E43
:1040C000000E0D14076EFE0E0E14086E055006103D
:1040D00007100810D8A46FEF20F071EF20F054EF14
:1040E00020F07FEF20F00A2A010E0B26000E0C2292
:1040F0000D220E22D8900E320D320C320B32000EF1
:104100000B14056E000E0C14066E000E0D14076ED7
:10411000FF0E0E14086E0550061007100810D8A4E4
:1041200094EF20F096EF20F073EF20F09EEF20F058
:104130000A06D8900B360C360D360E360DBEA3EFA0
:1041400020F0A5EF20F0ADEF20F0020E0A60ABEFFB
:1041500020F0ADEF20F098EF20F00AB0B2EF20F0A1
:10416000B4EF20F0B5EF20F00D9ED8900A320AC0CF
:1041700005F0066A076A086A05C008F0076A066A59
:10418000056A05500B1206500C1207500D1208500C
:104190000E120950D8B4CFEF20F0D1EF20F0D9EFB4
:1041A00020F004BED8EF20F0D6EF20F0D9EF20F0B9
:1041B0000E8E0BC001F00CC002F00DC003F00EC05B
:1041C00004F012000EEC2CF0030E0001C46F8A0EF6
:1041D000C36F550EE82EFED7C32FFCD7C42FFAD7D6
:1041E00000D0060E0001CD6F2C0ECC6F2C0ECE6FC2
:1041F000000ED06F000ECF6F440E09EC26F00009C0
:10420000D8B405EF21F007EF21F0FCEF20F0CC0E41
:10421000016E000E026E000E046E020E036E89EC3B
:104220002BF0B9EC2CF0210E0001C36F760EE82EB6
:10423000FED7C32FFCD700F0B60E076E550E086EE2
:10424000000E096ECF0E0A6E000E0B6EE7EC2BF01F
:10425000CE0E016E000E026E000E046E010E036E95
:1042600089EC2BF0000E076E000E086E000E096E32
:10427000000E0A6E000E0B6ED9EC2BF0B9EC2CF090
:10428000D0C0C3F00001CF51C46FC351CA6FC4C0C6
:10429000CBF0000E2C6EFF0E2D6E7F0E2E6E470E95
:1042A0002F6E000E136E000E146E2F0E156E430E41
:1042B000166ECAC001F0CBC002F0000E02BEFF0EA7
:1042C000036E046E010E08EC20F001C00FF002C076
:1042D00010F003C011F004C012F0E7EC18F00FC0AA
:1042E00028F010C029F011C02AF012C02BF032ECD7
:1042F0001DF028C041F029C042F02AC043F02BC075
:1043000044F0000E456E000E466E340E476EC20E2F
:10431000486E87EC16F041C0C6F042C0C7F043C0FB
:10432000C8F044C0C9F03A0E0001B96F200EBA6F50
:10433000C6C0BBF0C7C0BCF0C8C0BDF0C9C0BEF0AD
:104340004FEC2BF039EC2BF0E806D8B4AAEF21F0B3
:10435000ACEF21F0A2EF21F0E4EF20F0FEEFFFF050
:104360002FEC2CF00009D8B4B8EF21F0BAEF21F00F
:10437000F6EF21F0C7EF21F092EC2CF042EF22F0A3
:10438000EDEC2CF042EF22F0000E42EF22F0E9C0FB
:104390000CF0EAC00DF020EEDAF002D8DAEF21F0EE
:1043A0000500FA6EDE50FD6EDE50FE6EDE50FF6ED2
:1043B000FA5012000E6E0F6A0F50000AD8B4E3EFE5
:1043C00021F0C4EF21F00E50010AD8B4C4EF21F05F
:1043D000030AD8B4BCEF21F0010AD8B4C0EF21F031
:1043E000070AD8B4C4EF21F0C4EF21F024EC2CF07C
:1043F0000009D8B4FEEF21F000EF22F041EF22F0E7
:104400000001FA51030B0009D8B409EF22F00BEFB9
:1044100022F017EF22F0010E0E6EFA51030B0F6E11
:104420000E500F5EFA510F18FC0B0F18FA6F600058
:10443000D3F3D9FF6000D7F3DAFFDF50126EF44BED
:10444000F52BF607D8A0F707F651F711D8A42BEFF4
:1044500022F02DEF22F035EF22F08EEC27F00E6ED9
:104460000E50106E116A39EF22F0000E116E030E1D
:10447000106E10C013F01250AAEC2CF0135042EF43
:1044800022F0030E1200033404340A6E0A50D8A43A
:104490004CEF22F04EEF22F058EF22F0000E016EAA
:1044A000000E026E000E036E000E046EC5EF22F0C9
:1044B00001C005F002C006F003C007F004C008F018
:1044C000200E68EF22F0D89008320732063205320B
:1044D000E82E63EF22F00550096E038EFF0E0116E1
:1044E000FF0E0216FF0E0316000E0416960E0A5E4D
:1044F0000ABE7FEF22F07DEF22F095EF22F00A5006
:10450000800A970FD8B087EF22F089EF22F08BEF67
:1045100022F04EEF22F0D890043203320232013200
:104520000A3E8BEF22F0ADEF22F01F0E0A649BEFE4
:1045300022F09DEF22F0A5EF22F04EEF22F0D8906E
:1045400001360236033604360A060A50D8A4ABEF09
:1045500022F0ADEF22F09FEF22F00950D8B4B3EF74
:1045600022F0B5EF22F0BDEF22F0041E031E021E62
:10457000016C000E02220322042201C001F002C0DD
:1045800002F003C003F004C004F01200000E28146F
:10459000306E000E2914316E800E2A14326E7F0E9A
:1045A0002B14336E3050311032103310D8A4DBEF9F
:1045B00022F0DDEF22F0E5EF22F0000E286E000E73
:1045C000296E000E2A6E000E2B6E000E2C14306E1B
:1045D000000E2D14316E800E2E14326E7F0E2F14AD
:1045E000336E3050311032103310D8A4FAEF22F06D
:1045F000FCEF22F004EF23F0000E2C6E000E2D6E67
:10460000000E2E6E000E2F6E2BAE09EF23F00BEF77
:1046100023F014EF23F0286C291ED8B0292A2A1E73
:10462000D8B02A2A800E2B562FAE19EF23F01BEF9D
:1046300023F024EF23F02C6C2D1ED8B02D2A2E1E33
:10464000D8B02E2A800E2F56000E281A000E291AD6
:10465000000E2A1A800E2B1A000E2C1A000E2D1A8C
:10466000000E2E1A800E2F1A2C50285C2D5029581F
:104670002E502A582F502B58D8B041EF23F043EF3B
:1046800023F046EF23F0D89047EF23F0D8801200B4
:1046900004C10BF005C10CF006C10DF007C10EF00E
:1046A00001C00BF002C00CF003C00DF004C00EF00E
:1046B0000BC005F00CC006F00DC007F00EC008F0EE
:1046C000180E68EF23F0D890083207320632053210
:1046D000E82E63EF23F00550096E0A6A09500A10AC
:1046E000D8A475EF23F077EF23F097EF23F0D8905D
:1046F0000B34056E0C34066E0D34076E0E34086EE6
:104700000550061007100810D8A489EF23F08BEF8E
:1047100023F091EF23F0000E026E020E016EC6EF41
:1047200023F0000E026E030E016EC6EF23F009287F
:104730000A10D8A49EEF23F0A0EF23F0C2EF23F0DD
:104740000BC005F00CC006F00DC007F00EC008F05D
:10475000090ED8900536063607360836E82EA9EF3A
:1047600023F00550061007100810D8B4BAEF23F054
:10477000BDEF23F0010EBEEF23F0000E016E026AC2
:10478000C6EF23F0000E026E040E016E120001C08F
:1047900008F002C009F003C00AF004C00BF00506DF
:1047A000D8A00606052806E10628D8A4DAEF23F0EB
:1047B000DCEF23F0E9EF23F0000E026E000E016E35
:1047C00043EF24F0084A092A0A4A0B2A0506D8A012
:1047D0000606600023F0D9FF600027F0DAFFDF5003
:1047E000D8B4F5EF23F0F7EF23F02CEF24F06000BE
:1047F0002BF0F6FF60002FF0F7FF000EF86E0800B8
:10480000F5500009D8B407EF24F009EF24F02CEF9D
:1048100024F005500610D8B410EF24F012EF24F065
:104820002CEF24F0600023F0D9FF600027F0DAFFBE
:10483000DF50076E60002BF0F6FF60002FF0F7FFEF
:10484000000EF86E0800F5500718D8B42AEF24F0CF
:104850002CEF24F0E2EF23F0600023F0D9FF60009A
:1048600027F0DAFFDF50076E60002BF0F6FF6000E4
:104870002FF0F7FF000EF86E0800F550075C016E90
:10488000026AD8A0020612000001FDA14AEF24F03E
:104890004CEF24F056EF24F015C00CF016C00DF0CC
:1048A00013C00EF014C00FF01CEC2AF018BE5BEF22
:1048B00024F05DEF24F063EF24F017C01CF018C063
:1048C0001DF067EF24F0000E1D6E000E1C6E000E32
:1048D0001B6E000E1A6E79EF24F0000E046E200E8F
:1048E000036E13C005F014C006F0FCEC26F01A4A63
:1048F0001B2A1C501A5C1B50800A196E1D50800A1E
:104900001958D8A086EF24F088EF24F06DEF24F03A
:104910000001FDB18EEF24F090EF24F09AEF24F027
:1049200015C00CF016C00DF013C00EF014C00FF03F
:104930001CEC2AF015C001F016C002F03EEC2AF083
:104940001C500124136E1D500220146E1200000E24
:10495000066E04BEB0EF24F0AEEF24F0B6EF24F004
:10496000036C041ED8B0042A010E066E02BEBDEF11
:1049700024F0BBEF24F0C3EF24F0016C021ED8B08A
:10498000022A010E061A000E086E000E076E035072
:104990000410D8B4CEEF24F0D0EF24F0F8EF24F0D8
:1049A000010E056ED8EF24F0D89003360436052AA0
:1049B00004AEDDEF24F0DFEF24F0D4EF24F0D89044
:1049C000073608360350015C04500258D8A0EBEFBC
:1049D00024F0EDEF24F0F2EF24F00350015E0450D8
:1049E000025A0780D89004320332052EDFEF24F0FC
:1049F0000650D8B4FEEF24F000EF25F004EF25F0C8
:104A0000076C081ED8B0082A07C001F008C002F0E1
:104A10001200000E066E02BE12EF25F010EF25F018
:104A200018EF25F0016C021ED8B0022A010E066EA6
:104A300004BE1FEF25F01DEF25F023EF25F0036CDA
:104A4000041ED8B0042A03500410D8B42AEF25F06D
:104A50002CEF25F050EF25F0010E056E34EF25F018
:104A6000D89003360436052A04AE39EF25F03BEF23
:104A700025F030EF25F00350015C04500258D8A017
:104A800044EF25F046EF25F04AEF25F00350015E94
:104A90000450025AD89004320332052E3BEF25F021
:104AA0000650D8B456EF25F058EF25F05CEF25F00E
:104AB000016C021ED8B0022A01C001F002C002F04F
:104AC0001200000E0114096E000E02140A6E800E10
:104AD00003140B6E7F0E04140C6E09500A100B1099
:104AE0000C10D8A476EF25F078EF25F080EF25F0B4
:104AF000000E016E000E026E000E036E000E046EBC
:104B0000000E0514096E000E06140A6E800E0714BE
:104B10000B6E7F0E08140C6E09500A100B100C104F
:104B2000D8A495EF25F097EF25F09FEF25F0000E24
:104B3000056E000E066E000E076E000E086E055024
:104B400001180FE1065002180CE10750031809E1A3
:104B500008500418D8B4AFEF25F0B1EF25F0B4EF4A
:104B600025F0D890B5EF25F0D8801200000EBE6E6B
:104B7000000EBD6E000EBA6E000EBB6E000EBC6E57
:104B8000070EC66EC268C368A70EC46EC5683A0138
:104B90007069670E606FF90E506F070E806F406985
:104BA000000E716F000E816F000E516F000E416F8D
:104BB000000E616F000E5A6F000E5B6F000E6A6F81
:104BC000000E6B6F000E7A6F000E7B6F000E826F0F
:104BD000000E426F860E526F180E626F000E726FDB
:104BE0004369536963697369070E836F4469546944
:104BF000646974690F0E846F140EE26F210E136FD7
:104C0000220E146F130E166F170EE56F130EE16F61
:104C10001200016E010E026E0001FAB712EF26F0CB
:104C200014EF26F059EF26F001C0F3F0FA95FA8759
:104C3000FC0EFA170F0EF86F010EF26FF40EF16F03
:104C4000FA89E20ED16F590ED26F000ED36F000EAB
:104C5000E36F000EE46FE20ED46F590ED56F000EB5
:104C6000D66F000EE56F000EE66FE20ED76F590E9D
:104C7000D86F000ED96F000EE76F000EE86FE20EDE
:104C8000DA6F590EDB6F000EDC6F000EE96F000E5D
:104C9000EA6FDE0EDD6F590EDE6F000EDF6F000E65
:104CA000EB6F000EEC6FC9EC2CF00BEC2BF0000E50
:104CB000026E025012000001FA897FEF26F0DCEC50
:104CC0002CF0080EACEF26F0DCEC2CF0070EACEF6D
:104CD00026F00001F629AFEC2CF0040EACEF26F024
:104CE000070E0001F819D8B478EF26F07AEF26F015
:104CF0007CEF26F0DFEC2CF00F0EACEF26F0E3C0DB
:104D00000CF0E4C00DF002D890EF26F00500FA6E2A
:104D1000D151FD6ED251FE6ED351FF6EFA5012008A
:104D20000E6E0F6A0F50000AD8B499EF26F070EF9C
:104D300026F00E50010AD8B470EF26F0030AD8B45A
:104D400064EF26F0010AD8B45FEF26F0070AD8B462
:104D500069EF26F070EF26F012003AEC2CF0000913
:104D6000D8A4B5EF26F0B7EF26F0BAEF26F0040E80
:104D7000FBEF26F00001FA51030B0009D8B4C3EF92
:104D800026F0C5EF26F0D1EF26F0010E106EFA5195
:104D9000030B116E1050115EFA511118FC0B111813
:104DA000FA6FF607D8A0F707F651F711D8B4DBEF82
:104DB00026F0DDEF26F0EBEF26F0D9EC2CF06000CA
:104DC000D3F3D9FF6000D7F3DAFFDF6E0001F44BB5
:104DD000F52BB7EF26F05BEC26F0126ED9EC2CF039
:104DE0006000D3F3D9FF6000D7F3DAFFDF6E000174
:104DF000F44BF52B1250120005500610D8B403EFF7
:104E000027F005EF27F00EEF27F005500610D8A485
:104E10000CEF27F00EEF27F013EF27F00350A5EC6F
:104E20002CF046EF27F020EE04F00550D92606506E
:104E3000DA22DE50DE10D8B420EF27F022EF27F080
:104E40003DEF27F020EE04F00550D9260650DA2277
:104E500010EE02F00550E1260650E222DE50E65C3C
:104E6000E650800A0B6EDE50800A0B58D8B03BEF3C
:104E700027F03DEF27F046EF27F020EE02F0055037
:104E8000D9260650DA22DE2A000EDD221200066E36
:104E9000015002100310D8B450EF27F052EF27F062
:104EA00073EF27F00650030DD10EF324D96E000ED8
:104EB000F420DA6E600007F0DEFF60000BF0DEFF2A
:104EC00060000FF0DEFF0650020DE30EF324D96EF2
:104ED000000EF420DA6E600013F0DEFF600017F0C1
:104EE000DDFF8DEF27F00650030DD10EF324D96EB0
:104EF000000EF420DA6EE20EDE6E590EDE6E000E4B
:104F0000DE6E0650020DE30EF324D96E000EF4207F
:104F1000DA6E000EDE6E000EDD6E12000001FA8900
:104F2000A3EF27F0DCEC2CF0070ECCEF27F000010C
:104F3000F629AFEC2CF0030ECCEF27F0DFEC2CF0D1
:104F40000A0ECCEF27F0E3C00CF0E4C00DF002D85D
:104F5000B4EF27F00500FA6ED151FD6ED251FE6E0E
:104F6000D351FF6EFA5012000E6E0F6A0F50000AF6
:104F7000D8B4BDEF27F09EEF27F00E50010AD8B449
:104F80009EEF27F0030AD8B492EF27F0060AD8B4B0
:104F900097EF27F09EEF27F01200000E3D01EC6F17
:104FA000000EED6F000EEE6F000EEF6F000EF06F53
:104FB000000EF16FB00EF26F800EF36F000EF46F03
:104FC000190EF56F000EF66F000EF76F000EF86FFA
:104FD000000EF96F000EFA6F000E016E000E026EE9
:104FE000000E036E7DEC2CF0000E016E000E026EC2
:104FF000000E036E76EC2CF0000E016E000E026EB9
:10500000000E036E84EC2CF0000E0001FF6F120006
:10501000C9EC2CF0020E0001F96F1BEF28F092ECA6
:105020002CF042EF28F0EDEC2CF042EF28F06EEC83
:105030002CF042EF28F0E5C00CF0E6C00DF020EEB9
:10504000D4F002D82EEF28F00500FA6EDE50FD6E87
:10505000DE50FE6EDE50FF6EFA5012000E6E0F6ACA
:105060000F50000AD8B437EF28F017EF28F00E5091
:10507000020AD8B40FEF28F0010AD8B413EF28F0D1
:1050800017EF28F01200B3C0B7F0B4C0B8F0000EAC
:105090000101096F000E086F65EF28F0B1C09DF0A7
:1050A000B2C09EF0B70E00019F6F000EA06FB5C09A
:1050B000A1F0B6C0A2F00EEC1BF000019D51010161
:1050C000082700019E51010109236000DFF2F6FF6D
:1050D0006000E3F2F7FF000EF86E0800F5500009DB
:1050E000D8A475EF28F077EF28F04EEF28F008C12C
:1050F000B1F009C1B2F01200A8EC29F00001FA5198
:10510000030B0009D8B487EF28F089EF28F096EF59
:1051100028F02FEC2CF00009D8B491EF28F093EF91
:1051200028F096EF28F0100E0001F86F0001F851FA
:10513000030D010EF324F66E200EF420F76EF86ACC
:10514000000EF82202D8B2EF28F00500FA6E09002E
:10515000F550FD6E0900F550FE6E0900F550FF6E2A
:10516000FA5012000001F86F1200FC0E0001FA174D
:10517000020EF96FFA95C4EF28F0EBEC2CF0EBEF90
:1051800028F00F0EEBEF28F0E7C00CF0E8C00DF0B0
:1051900020EED7F002D8D7EF28F00500FA6EDE50E7
:1051A000FD6EDE50FE6EDE50FF6EFA5012000E6E87
:1051B0000F6A0F50000AD8B4E0EF28F0C1EF28F0D2
:1051C0000E50020AD8B4BDEF28F0010AD8B4BDEFE2
:1051D00028F0C1EF28F0120003C007F004C008F067
:1051E00001C009F002C00AF00750056E0850066EB3
:1051F000074A082A600017F0F6FF60001BF0F7FF6F
:10520000000EF86E600027F0D9FF60002BF0DAFF87
:10521000094A0A2A1F0EF76403D00800F55007D088
:105220006F00DBFFE9FF6F00DFFFEAFFEF50DF6E8B
:10523000DF50D8A41EEF29F020EF29F0F4EF28F07A
:105240001200BF0E096EFF0E0A6E07C00BF008C0F9
:105250000CF009500B260A500C220C500AE11A0ED1
:105260000B5CD8A036EF29F039EF29F0010E3AEFA8
:1052700029F0000E0D6E0E6A0D500E10D8B443EFDB
:1052800029F045EF29F04CEF29F0200E0710076EAA
:105290000850086E50EF29F007C007F008C008F06A
:1052A00012003901A3A157EF29F059EF29F05BEF64
:1052B00029F07EEF29F0A2AF60EF29F062EF29F02C
:1052C00064EF29F07EEF29F03D0179A56AEF29F01E
:1052D0006CEF29F06EEF29F07EEF29F079AF73EFD4
:1052E00029F075EF29F077EF29F07EEF29F076A904
:1052F0007CEF29F07EEF29F051EF29F01200146EB7
:10530000010E156E0001FAB588EF29F08AEF29F039
:10531000A6EF29F0FA85000E156EF651AFEC2CF0D1
:105320001450D8B496EF29F098EF29F09FEF29F0A8
:10533000040E0001F86F22EC2BF0A4EF29F0030E0D
:105340000001F86F19EC2CF0BBEC2BF0155012009B
:105350005BEC2CF00009D8B4B0EF29F0B2EF29F0E3
:10536000B6EF29F0E8EC2CF0D0EF29F045EC2CF06A
:105370000009D8B4BEEF29F0C0EF29F0C4EF29F03E
:10538000E2EC2CF0D0EF29F050EC2CF00009D8B46E
:10539000CCEF29F0CEEF29F0D0EF29F0E5EC2CF09E
:1053A000120020EE02F00C50D9260D50DA226F00C8
:1053B00078FF01F06F0074FF02F0600033F0D9FF56
:1053C000600037F0DAFF6F0078FF03F06F0074FFC2
:1053D00004F089EC2BF0000E076E000E086E000E34
:1053E000096E000E0A6E000E0B6EE7EC2BF0020E3B
:1053F0001200000E551A000E561A000E571A800E93
:10540000581A51C041F052C042F053C043F054C04A
:1054100044F055C045F056C046F057C047F058C05C
:1054200048F087EC16F041C051F042C052F043C042
:1054300053F044C054F01200000E126E000E116EB4
:105440002DEF2AF010C003F0046A0EC005F00FC063
:1054500006F0FCEC26F0114A122A11500C24D96EE9
:1054600012500D20DA6EDF50106E1050D8A43BEFB2
:105470002AF03DEF2AF022EF2AF0120001C003F0DB
:1054800002C004F046EF2AF0014A022A600007F049
:10549000D9FF60000BF0DAFFDF50D8A452EF2AF0FA
:1054A00054EF2AF044EF2AF00350015C016E0450DF
:1054B0000258026E1200BF0E036EFF0E046E01C092
:1054C00005F002C006F003500526045006220650DF
:1054D0000AE11A0E055CD8A070EF2AF073EF2AF0EB
:1054E000010E74EF2AF0000E016E026A12000150E4
:1054F000021003100410D8B480EF2AF082EF2AF0D3
:105500008AEF2AF0000E011A000E021A000E031A8A
:10551000800E041A01C001F002C002F003C003F0C3
:1055200004C004F012000CC001F00DC002F0000E27
:10553000046E010E036E89EC2BF0000E076E000E58
:10554000086E000E096E000E0A6E000E0B6EE7EC80
:105550002BF0040E12000CC001F00DC002F0000E82
:10556000046E020E036E89EC2BF0000E076E000E27
:10557000086E000E096E000E0A6E000E0B6EE7EC50
:105580002BF0020E12000CC001F00DC002F0000E54
:10559000046E010E036E89EC2BF0000E076E000EF8
:1055A000086E000E096E000E0A6E000E0B6EE7EC20
:1055B0002BF0020E12000CC001F00DC002F0000E24
:1055C000046E020E036E89EC2BF0000E076E000EC7
:1055D000086E000E096E000E0A6E000E0B6EE7ECF0
:1055E0002BF0020E12000CC001F00DC002F0000EF4
:1055F000046E020E036E89EC2BF0000E076E000E97
:10560000086E000E096E000E0A6E000E0B6EE7ECBF
:105610002BF0040E12003D0173BF11EF2BF013EFBE
:105620002BF021EF2BF0000E796F000E7A6F000E39
:10563000766F6C69510E3A016A6F510E6B6F3D01C6
:10564000738F12000001FA51FC0B0209FA6FF60584
:10565000F711D8A42EEF2BF030EF2BF032EF2BF018
:105660005BEC26F0D8800001F335AAEC2CF0040E98
:105670001200010E016E0001FAB541EF2BF043EF6D
:105680002BF04DEF2BF0FA97F369C9EC2CF0CAEC34
:105690002BF09FEC2CF0F9C001F001501200BB0E72
:1056A0000001C16F000EC26F000EB16F000EB26F2D
:1056B000B9C0B3F0BAC0B4F0C10EB56F000EB66F8A
:1056C00043EC28F01200D0EC2CF0CDEC2CF00009CB
:1056D000D8B46DEF2BF06FEF2BF075EF2BF0000EC1
:1056E000AFEC2CF0000EAAEC2CF0000E1200000E15
:1056F0003901C06F000EC16F000EC26F000EC36F84
:10570000000EC46F000EC56F000EC66F000EC76F8F
:1057100012000001FAA98FEF2BF091EF2BF09AEF16
:105720002BF001C0F4F002C0F5F003C0F6F004C0A5
:10573000F7F0FA991200040E3D01736F800E746F3A
:10574000180E756F000E7B6F000E796F000E7A6F6A
:10575000000E766F6C69120000EE00F15C0EEE6ACE
:10576000E806FDE100EED1F02F0EEE6AE806FDE15D
:105770000001E2EF20F0C1EF2BF051EC29F07CECBE
:1057800028F00001FAB5C7EF2BF0C9EF2BF0BDEF01
:105790002BF01200390193939395929F93913D01C1
:1057A0007A917A957A9F7A9D7A9376937695769187
:1057B000120007C001F008C002F009C003F00AC0DF
:1057C00004F00BC005F0020E47EC27F0120007C0F2
:1057D00001F008C002F009C003F00AC004F00BC0D9
:1057E00005F0000E47EC27F01200016E3901A3A965
:1057F000FCEF2BF0FEEF2BF0F6EF2BF0600007F044
:10580000EAFD1200620E3901D96F000EDB6F000E47
:10581000DD6F020EDF6F000EDE6F120077EC2BF0F3
:105820009BEC2BF0B6EC25F002EC2CF0CDEC27F045
:1058300012000001FA51FC0B0209FA6FF351F32533
:10584000AAEC2CF0030E12003D0178BB2AEF2CF0DD
:105850002DEF2CF0010E2EEF2CF0000E12003D016A
:1058600074BB35EF2CF038EF2CF0010E39EF2CF033
:10587000000E12003D0178B140EF2CF043EF2CF008
:10588000010E44EF2CF0000E12003D0179B54BEFF4
:105890002CF04EEF2CF0010E4FEF2CF0000E12000A
:1058A0003D0176B956EF2CF059EF2CF0010E5AEF6E
:1058B0002CF0000E12003D0179BF61EF2CF064EF77
:1058C0002CF0010E65EF2CF0000E1200B4EC2CF061
:1058D0000001FA95020EF96F0F0E1200B4EC2CF0D5
:1058E0000001FA95000EF96F0F0E120001C05FF172
:1058F00002C060F103C061F1120001C062F102C098
:1059000063F103C064F1120001C05CF102C05DF1FB
:1059100003C05EF11200D3EC2CF0D0EC2CF099EC2B
:105920002CF012000001F651AFEC2CF022EC2BF021
:1059300012000001FA95000EF96F0F0E12003D01E2
:10594000739F000E796F78851200026E0250F5EC9D
:105950002BF01200016E600007F06BFD1200016E6B
:10596000600007F06CFD12003D01739F7885738F16
:105970001200000E7FEC29F01200D3EC2CF0090E7F
:105980001200D6EC2CF0040E1200D6EC2CF0030E14
:105990001200000E3D01796F12003D016C511200A2
:1059A0003D01739B12003D01748D12003D01749DF9
:1059B00012003D016A5112003D01738D12003D013C
:1059C000739D12003D01799512003D0176991200F8
:1059D0003D01799F1200010E1200020E1200050E09
:0659E0001200010E12008E
:020000040001F9
:04FFFC00ACEF2BF04B
:020000040020DA
:10000000FF0FFF0FFF0FFF0FFF0FFF0FFF0FFF0F80
:020000040030CA
:0A000000ECFFF7FF9FFFFFFFFFFF7B
:00000001FF
